:020000000D28C9
:10000800DE00030E8312AA000A08AB005F08AC00EA
:100018001C280E283421AD003521AE00A001A10115
:10002800A201A301A401A501A601A7018301142926
:100038000B1D1F28202829280130A4070318A50A0A
:100048000030A5073C3081000B112E08803AA8002B
:100058002508803A2802031D332824082D02031896
:10006800362837284228831205108510A401A501D7
:10007800A201A301A001A101A601A7010B1C45280B
:100088004628A7288312851E4A284B28A728C3304C
:10009800A900CD30A800A80B4F28A90B4F28831220
:1000A800851E57285828A2280B1026082704031D48
:1000B8005E285F286D2805140130A6000030A700CF
:1000C8000130A2070318A30A0030A307A401A50161
:1000D800A2282308803ADF0080305F02031D7628BB
:1000E80001302202031C79287A28832801308312E0
:1000F800A2070318A30A0030A307A401A5018312CD
:100108002108803ADF0080305F02031D8D2801300E
:100118002002031C90289128A228FF308312A007F0
:100128000318A10AFF30A10720082104031D9D28F8
:100138009E28A2288510A601A701A2288312851A45
:10014800A628A728A2280B1CAA28AB280A298312AC
:10015800051EAF28B0280A29C330A900CD30A80051
:10016800A80BB428A90BB4288312051EBC28BD28E7
:1001780005290B1026082704031DC328C428D228E4
:1001880085140130A6000030A7000130A00703182D
:10019800A10A0030A107A401A50105292308803A76
:1001A800DF0080305F02031DDB2801302202031CC0
:1001B800DE28DF28EF28FF308312A2070318A30ADE
:1001C800FF30A30722082304031DEB28EC28EF289F
:1001D8000510A601A70183122108803ADF008030AC
:1001E8005F02031DF92801302002031CFC28FD28AA
:1001F800052901308312A0070318A10A0030A107BE
:10020800CF288312051A09290A29052983122C08DF
:10021800DF002B088A002A0E8300DE0E5E0E09001E
:100228008316811281110114811401158B138B150A
:100238000B1016159615161696168B160B118B178E
:10024800051085100511851505168516831281017F
:100258000730990083169F018312850132290D28E2
:04026800F434013435
:02400E009431EB
:00000001FF
